:100000000C942A000C9447000C9447000C94470071
:100010000C9447000C9447000C9447000C94470044
:100020000C9449000C9447000C9447000C94470032
:100030000C9447000C9447000C9447000C94470024
:100040000C9447000C9447000C9447000C94470014
:100050000C94470011241FBECFE5D4E0DEBFCDBF16
:1000600010E0A0E6B0E0EAEFF1E002C005900D92EA
:10007000A236B107D9F720E0A2E6B0E001C01D9298
:10008000A936B207E1F70E94C0000C94FB000C9463
:1000900000001F920F920FB60F9211245F936F937F
:1000A0007F938F939F93AF93BF9380EE9FEF9DBD00
:1000B0008CBD809162008130D1F028F0823001F156
:1000C0008330F1F14AC080916000909161006AE054
:1000D00070E00E94D3009093680080936700709353
:1000E00061006093600081E08093620036C012BAC4
:1000F000109266001092650082E0809362002DC02D
:1001000080916700909168000090650002C095950D
:1001100087950A94E2F780FD03C081E082BB01C0AD
:1001200012BA8091650090916600019690936600E6
:1001300080936500089789F483E0809362000DC086
:1001400081E082BB8091630090916400019690935E
:10015000640080936300109262008091630090912C
:10016000640008970CF0F894BF91AF919F918F9124
:100170007F916F915F910F900FBE0F901F90189518
:1001800017BA8FEF81BB88BB82BB8EB584608EBDF2
:1001900089B7846089BF8EEE95E89DBD8CBDB2990C
:1001A000FECF7894FCCF97FB072E16F4009407D06F
:1001B00077FD09D00E94E70007FC05D03EF490953A
:1001C00081959F4F0895709561957F4F0895AA1B63
:1001D000BB1B51E107C0AA1FBB1FA617B70710F032
:1001E000A61BB70B881F991F5A95A9F78095909564
:0A01F000BC01CD010895F894FFCF83
:0201FA00B17FD3
:00000001FF
