:100000000C942A000C9447000C9447000C94470071
:100010000C9447000C9447000C9447000C94470044
:100020000C9447000C9447000C9447000C94470034
:100030000C9447000C9447000C9447000C94470024
:100040000C9447000C9447000C9447000C94470014
:100050000C94470011241FBECFE5D4E0DEBFCDBF16
:1000600010E0A0E6B0E0E4E7F1E002C005900D92F8
:10007000A236B107D9F720E0A2E6B0E001C01D9298
:10008000A236B207E1F70E9449000C94B8000C9424
:10009000000017BA8FEF81BB88BB82BBCAE0D0E0FB
:1000A000EFEF4EEFF1E0B299FECF2FEF81EE94E04B
:1000B000215080409040E1F700C000008091600036
:1000C00090916100BE010E94900070936100609366
:1000D000600012BAA7ECB0E01197F1F700C0000081
:1000E00028E030E081709927009741F442BBA7ECEB
:1000F000B0E01197F1F700C0000007C0E2BBA7EC29
:10010000B0E01197F1F700C000002150310961F70C
:10011000F2BB87EC90E00197F1F700C00000C3CF7D
:1001200097FB072E16F4009407D077FD09D00E94A4
:10013000A40007FC05D03EF4909581959F4F08954B
:10014000709561957F4F0895AA1BBB1B51E107C0B5
:10015000AA1FBB1FA617B70710F0A61BB70B881F57
:10016000991F5A95A9F780959095BC01CD010895E6
:04017000F894FFCF31
:02017400070082
:00000001FF
