:100000000C942A000C9447000C9447000C94470071
:100010000C9447000C9447000C9447000C94470044
:100020000C9449000C9447000C9447000C94470032
:100030000C9447000C9447000C9447000C94470024
:100040000C9447000C9447000C9447000C94470014
:100050000C94470011241FBECFE5D4E0DEBFCDBF16
:1000600010E0A0E6B0E0E4E5F2E002C005900D92F9
:10007000A436B107D9F720E0A4E6B0E001C01D9294
:10008000AA36B207E1F70E94D5000C9428010C941F
:1000900000001F920F920FB60F9211242F933F93DF
:1000A0004F935F936F937F938F939F93AF93BF9380
:1000B000EF93FF938CEF9FEF9DBD8CBD809165000A
:1000C00090916600181619060CF45EC080916400C9
:1000D000813019F130F0823049F1833009F447C0A2
:1000E00053C06091600070916100809162009091B6
:1000F00063002AE030E040E050E00E94E7006093B7
:100100006900209360003093610040936200509337
:10011000630081E08093640037C012BA10926800D7
:100120001092670082E0809364002EC08091690085
:1001300090E00090670002C0959587950A94E2F7D9
:1001400080FF03C082E082BB01C012BA80916700C9
:10015000909168008830910524F083E080936400DA
:1001600013C0019690936800809367000DC082E0F1
:1001700082BB809165009091660001969093660025
:100180008093650010926400FF91EF91BF91AF9151
:100190009F918F917F916F915F914F913F912F919F
:1001A0000F900FBE0F901F90189517BA8FEF81BB5D
:1001B00088BB82BB8EB584608EBD89B7846089BFE1
:1001C0008CEF9FEF9DBD8CBD789486B3FECF052E3E
:1001D00097FB1EF400940E94FE0057FD07D00E947A
:1001E000060107FC03D04EF40C94FE005095409598
:1001F000309521953F4F4F4F5F4F089590958095D3
:10020000709561957F4F8F4F9F4F0895A1E21A2EF1
:10021000AA1BBB1BFD010DC0AA1FBB1FEE1FFF1FAA
:10022000A217B307E407F50720F0A21BB30BE40BFA
:10023000F50B661F771F881F991F1A9469F7609541
:100240007095809590959B01AC01BD01CF010895FB
:04025000F894FFCF50
:04025400080000009E
:00000001FF
