:100000000C942A000C943C000C943C000C943C0092
:100010000C943C000C943C000C943C000C943C0070
:100020000C943E000C943C000C943C000C943C005E
:100030000C943C000C943C000C943C000C943C0050
:100040000C943C000C943C000C943C000C943C0040
:100050000C943C0011241FBECFE5D4E0DEBFCDBF21
:1000600020E0A0E6B0E001C01D92A936B207E1F79A
:100070000E94B9000C94F3000C9400001F920F92A0
:100080000FB60F9211245F936F937F938F939F937B
:10009000AF93BF9380EE9FEF9DBD8CBD80916000BC
:1000A0008130D9F030F0823009F1833009F440C05A
:1000B0004CC080916300909164006AE070E00E94FF
:1000C000CB00909368008093670070936400609306
:1000D000630081E08093600038C012BA109266001D
:1000E0001092650082E0809360002FC080916700CD
:1000F000909168000090650002C0959587950A94DC
:10010000E2F780FF03C081E082BB01C012BA809198
:100110006500909166008730910524F083E080931C
:10012000600013C0019690936600809365000DC037
:1001300081E082BB80916100909162000196909372
:100140006200809361001092600080916100909144
:100150006200181619060CF4F894BF91AF919F91A4
:100160008F917F916F915F910F900FBE0F901F90B5
:10017000189517BA8FEF81BB88BB82BB8EB58460A0
:100180008EBD89B7846089BF8EEE95E89DBD8CBD1C
:10019000789486B3FECF97FB072E16F4009407D011
:1001A00077FD09D00E94DF0007FC05D03EF4909552
:1001B00081959F4F0895709561957F4F0895AA1B73
:1001C000BB1B51E107C0AA1FBB1FA617B70710F042
:1001D000A61BB70B881F991F5A95A9F78095909574
:0A01E000BC01CD010895F894FFCF93
:00000001FF
